{
  "contractName": "NFTCollectible",
  "abi": [
    {
      "inputs": [],
      "stateMutability": "nonpayable",
      "type": "constructor"
    },
    {
      "anonymous": false,
      "inputs": [
        {
          "indexed": true,
          "internalType": "address",
          "name": "owner",
          "type": "address"
        },
        {
          "indexed": true,
          "internalType": "address",
          "name": "approved",
          "type": "address"
        },
        {
          "indexed": true,
          "internalType": "uint256",
          "name": "tokenId",
          "type": "uint256"
        }
      ],
      "name": "Approval",
      "type": "event"
    },
    {
      "anonymous": false,
      "inputs": [
        {
          "indexed": true,
          "internalType": "address",
          "name": "owner",
          "type": "address"
        },
        {
          "indexed": true,
          "internalType": "address",
          "name": "operator",
          "type": "address"
        },
        {
          "indexed": false,
          "internalType": "bool",
          "name": "approved",
          "type": "bool"
        }
      ],
      "name": "ApprovalForAll",
      "type": "event"
    },
    {
      "anonymous": false,
      "inputs": [
        {
          "indexed": true,
          "internalType": "address",
          "name": "previousOwner",
          "type": "address"
        },
        {
          "indexed": true,
          "internalType": "address",
          "name": "newOwner",
          "type": "address"
        }
      ],
      "name": "OwnershipTransferred",
      "type": "event"
    },
    {
      "anonymous": false,
      "inputs": [
        {
          "indexed": true,
          "internalType": "address",
          "name": "from",
          "type": "address"
        },
        {
          "indexed": true,
          "internalType": "address",
          "name": "to",
          "type": "address"
        },
        {
          "indexed": true,
          "internalType": "uint256",
          "name": "tokenId",
          "type": "uint256"
        }
      ],
      "name": "Transfer",
      "type": "event"
    },
    {
      "inputs": [],
      "name": "LISTING_PRICE",
      "outputs": [
        {
          "internalType": "uint256",
          "name": "",
          "type": "uint256"
        }
      ],
      "stateMutability": "view",
      "type": "function"
    },
    {
      "inputs": [],
      "name": "MAX_AMOUNT",
      "outputs": [
        {
          "internalType": "uint256",
          "name": "",
          "type": "uint256"
        }
      ],
      "stateMutability": "view",
      "type": "function"
    },
    {
      "inputs": [],
      "name": "MAX_TOKENS_PER_ACCOUNT",
      "outputs": [
        {
          "internalType": "uint256",
          "name": "",
          "type": "uint256"
        }
      ],
      "stateMutability": "view",
      "type": "function"
    },
    {
      "inputs": [
        {
          "internalType": "address",
          "name": "to",
          "type": "address"
        },
        {
          "internalType": "uint256",
          "name": "tokenId",
          "type": "uint256"
        }
      ],
      "name": "approve",
      "outputs": [],
      "stateMutability": "nonpayable",
      "type": "function"
    },
    {
      "inputs": [
        {
          "internalType": "address",
          "name": "owner",
          "type": "address"
        }
      ],
      "name": "balanceOf",
      "outputs": [
        {
          "internalType": "uint256",
          "name": "",
          "type": "uint256"
        }
      ],
      "stateMutability": "view",
      "type": "function"
    },
    {
      "inputs": [
        {
          "internalType": "uint256",
          "name": "tokenId",
          "type": "uint256"
        }
      ],
      "name": "getApproved",
      "outputs": [
        {
          "internalType": "address",
          "name": "",
          "type": "address"
        }
      ],
      "stateMutability": "view",
      "type": "function"
    },
    {
      "inputs": [
        {
          "internalType": "address",
          "name": "owner",
          "type": "address"
        },
        {
          "internalType": "address",
          "name": "operator",
          "type": "address"
        }
      ],
      "name": "isApprovedForAll",
      "outputs": [
        {
          "internalType": "bool",
          "name": "",
          "type": "bool"
        }
      ],
      "stateMutability": "view",
      "type": "function"
    },
    {
      "inputs": [],
      "name": "name",
      "outputs": [
        {
          "internalType": "string",
          "name": "",
          "type": "string"
        }
      ],
      "stateMutability": "view",
      "type": "function"
    },
    {
      "inputs": [],
      "name": "owner",
      "outputs": [
        {
          "internalType": "address",
          "name": "",
          "type": "address"
        }
      ],
      "stateMutability": "view",
      "type": "function"
    },
    {
      "inputs": [
        {
          "internalType": "uint256",
          "name": "tokenId",
          "type": "uint256"
        }
      ],
      "name": "ownerOf",
      "outputs": [
        {
          "internalType": "address",
          "name": "",
          "type": "address"
        }
      ],
      "stateMutability": "view",
      "type": "function"
    },
    {
      "inputs": [],
      "name": "renounceOwnership",
      "outputs": [],
      "stateMutability": "nonpayable",
      "type": "function"
    },
    {
      "inputs": [
        {
          "internalType": "address",
          "name": "from",
          "type": "address"
        },
        {
          "internalType": "address",
          "name": "to",
          "type": "address"
        },
        {
          "internalType": "uint256",
          "name": "tokenId",
          "type": "uint256"
        }
      ],
      "name": "safeTransferFrom",
      "outputs": [],
      "stateMutability": "nonpayable",
      "type": "function"
    },
    {
      "inputs": [
        {
          "internalType": "address",
          "name": "from",
          "type": "address"
        },
        {
          "internalType": "address",
          "name": "to",
          "type": "address"
        },
        {
          "internalType": "uint256",
          "name": "tokenId",
          "type": "uint256"
        },
        {
          "internalType": "bytes",
          "name": "_data",
          "type": "bytes"
        }
      ],
      "name": "safeTransferFrom",
      "outputs": [],
      "stateMutability": "nonpayable",
      "type": "function"
    },
    {
      "inputs": [
        {
          "internalType": "address",
          "name": "operator",
          "type": "address"
        },
        {
          "internalType": "bool",
          "name": "approved",
          "type": "bool"
        }
      ],
      "name": "setApprovalForAll",
      "outputs": [],
      "stateMutability": "nonpayable",
      "type": "function"
    },
    {
      "inputs": [
        {
          "internalType": "bytes4",
          "name": "interfaceId",
          "type": "bytes4"
        }
      ],
      "name": "supportsInterface",
      "outputs": [
        {
          "internalType": "bool",
          "name": "",
          "type": "bool"
        }
      ],
      "stateMutability": "view",
      "type": "function"
    },
    {
      "inputs": [],
      "name": "symbol",
      "outputs": [
        {
          "internalType": "string",
          "name": "",
          "type": "string"
        }
      ],
      "stateMutability": "view",
      "type": "function"
    },
    {
      "inputs": [
        {
          "internalType": "uint256",
          "name": "tokenId",
          "type": "uint256"
        }
      ],
      "name": "tokenURI",
      "outputs": [
        {
          "internalType": "string",
          "name": "",
          "type": "string"
        }
      ],
      "stateMutability": "view",
      "type": "function"
    },
    {
      "inputs": [],
      "name": "totalSupply",
      "outputs": [
        {
          "internalType": "uint256",
          "name": "",
          "type": "uint256"
        }
      ],
      "stateMutability": "view",
      "type": "function"
    },
    {
      "inputs": [
        {
          "internalType": "address",
          "name": "from",
          "type": "address"
        },
        {
          "internalType": "address",
          "name": "to",
          "type": "address"
        },
        {
          "internalType": "uint256",
          "name": "tokenId",
          "type": "uint256"
        }
      ],
      "name": "transferFrom",
      "outputs": [],
      "stateMutability": "nonpayable",
      "type": "function"
    },
    {
      "inputs": [
        {
          "internalType": "address",
          "name": "newOwner",
          "type": "address"
        }
      ],
      "name": "transferOwnership",
      "outputs": [],
      "stateMutability": "nonpayable",
      "type": "function"
    },
    {
      "inputs": [
        {
          "internalType": "uint256",
          "name": "tokenQuantity",
          "type": "uint256"
        }
      ],
      "name": "mintTokenFromWeb",
      "outputs": [],
      "stateMutability": "payable",
      "type": "function"
    },
    {
      "inputs": [
        {
          "internalType": "address",
          "name": "treasury",
          "type": "address"
        }
      ],
      "name": "withdraw",
      "outputs": [],
      "stateMutability": "payable",
      "type": "function"
    }
  ],
  "bytecode": "0x608060405260006007556040518060400160405280601181526020017f68747470733a2f2f64756d6d795552492f0000000000000000000000000000008152506008908051906020019062000056929190620006fb565b503480156200006457600080fd5b506040518060400160405280600c81526020017f4459494e4720574f524c445300000000000000000000000000000000000000008152506040518060400160405280600281526020017f4457000000000000000000000000000000000000000000000000000000000000815250620000f1620000e56200017760201b60201c565b6200017f60201b60201c565b816001908051906020019062000109929190620006fb565b50806002908051906020019062000122929190620006fb565b50505060005b603281101562000170576200015a336007600081546200014890620007e4565b9190508190556200024360201b60201c565b80806200016790620007e4565b91505062000128565b5062000c63565b600033905090565b60008060009054906101000a900473ffffffffffffffffffffffffffffffffffffffff169050816000806101000a81548173ffffffffffffffffffffffffffffffffffffffff021916908373ffffffffffffffffffffffffffffffffffffffff1602179055508173ffffffffffffffffffffffffffffffffffffffff168173ffffffffffffffffffffffffffffffffffffffff167f8be0079c531659141344cd1fd0a4f28419497f9722a3daafe3b4186f6b6457e060405160405180910390a35050565b620002658282604051806020016040528060008152506200026960201b60201c565b5050565b6200027b8383620002d760201b60201c565b620002906000848484620004bd60201b60201c565b620002d2576040517f08c379a0000000000000000000000000000000000000000000000000000000008152600401620002c990620008b9565b60405180910390fd5b505050565b600073ffffffffffffffffffffffffffffffffffffffff168273ffffffffffffffffffffffffffffffffffffffff1614156200034a576040517f08c379a000000000000000000000000000000000000000000000000000000000815260040162000341906200092b565b60405180910390fd5b6200035b816200067760201b60201c565b156200039e576040517f08c379a000000000000000000000000000000000000000000000000000000000815260040162000395906200099d565b60405180910390fd5b620003b260008383620006e360201b60201c565b6001600460008473ffffffffffffffffffffffffffffffffffffffff1673ffffffffffffffffffffffffffffffffffffffff1681526020019081526020016000206000828254620004049190620009bf565b92505081905550816003600083815260200190815260200160002060006101000a81548173ffffffffffffffffffffffffffffffffffffffff021916908373ffffffffffffffffffffffffffffffffffffffff160217905550808273ffffffffffffffffffffffffffffffffffffffff16600073ffffffffffffffffffffffffffffffffffffffff167fddf252ad1be2c89b69c2b068fc378daa952ba7f163c4a11628f55a4df523b3ef60405160405180910390a45050565b6000620004eb8473ffffffffffffffffffffffffffffffffffffffff16620006e860201b620011851760201c565b156200066a578373ffffffffffffffffffffffffffffffffffffffff1663150b7a026200051d6200017760201b60201c565b8786866040518563ffffffff1660e01b815260040162000541949392919062000b16565b602060405180830381600087803b1580156200055c57600080fd5b505af19250505080156200059057506040513d601f19601f820116820180604052508101906200058d919062000bcc565b60015b62000619573d8060008114620005c3576040519150601f19603f3d011682016040523d82523d6000602084013e620005c8565b606091505b5060008151141562000611576040517f08c379a00000000000000000000000000000000000000000000000000000000081526004016200060890620008b9565b60405180910390fd5b805181602001fd5b63150b7a0260e01b7bffffffffffffffffffffffffffffffffffffffffffffffffffffffff1916817bffffffffffffffffffffffffffffffffffffffffffffffffffffffff1916149150506200066f565b600190505b949350505050565b60008073ffffffffffffffffffffffffffffffffffffffff166003600084815260200190815260200160002060009054906101000a900473ffffffffffffffffffffffffffffffffffffffff1673ffffffffffffffffffffffffffffffffffffffff1614159050919050565b505050565b600080823b905060008111915050919050565b828054620007099062000c2d565b90600052602060002090601f0160209004810192826200072d576000855562000779565b82601f106200074857805160ff191683800117855562000779565b8280016001018555821562000779579182015b82811115620007785782518255916020019190600101906200075b565b5b5090506200078891906200078c565b5090565b5b80821115620007a75760008160009055506001016200078d565b5090565b7f4e487b7100000000000000000000000000000000000000000000000000000000600052601160045260246000fd5b6000819050919050565b6000620007f182620007da565b91507fffffffffffffffffffffffffffffffffffffffffffffffffffffffffffffffff821415620008275762000826620007ab565b5b600182019050919050565b600082825260208201905092915050565b7f4552433732313a207472616e7366657220746f206e6f6e20455243373231526560008201527f63656976657220696d706c656d656e7465720000000000000000000000000000602082015250565b6000620008a160328362000832565b9150620008ae8262000843565b604082019050919050565b60006020820190508181036000830152620008d48162000892565b9050919050565b7f4552433732313a206d696e7420746f20746865207a65726f2061646472657373600082015250565b60006200091360208362000832565b91506200092082620008db565b602082019050919050565b60006020820190508181036000830152620009468162000904565b9050919050565b7f4552433732313a20746f6b656e20616c7265616479206d696e74656400000000600082015250565b600062000985601c8362000832565b915062000992826200094d565b602082019050919050565b60006020820190508181036000830152620009b88162000976565b9050919050565b6000620009cc82620007da565b9150620009d983620007da565b9250827fffffffffffffffffffffffffffffffffffffffffffffffffffffffffffffffff0382111562000a115762000a10620007ab565b5b828201905092915050565b600073ffffffffffffffffffffffffffffffffffffffff82169050919050565b600062000a498262000a1c565b9050919050565b62000a5b8162000a3c565b82525050565b62000a6c81620007da565b82525050565b600081519050919050565b600082825260208201905092915050565b60005b8381101562000aae57808201518184015260208101905062000a91565b8381111562000abe576000848401525b50505050565b6000601f19601f8301169050919050565b600062000ae28262000a72565b62000aee818562000a7d565b935062000b0081856020860162000a8e565b62000b0b8162000ac4565b840191505092915050565b600060808201905062000b2d600083018762000a50565b62000b3c602083018662000a50565b62000b4b604083018562000a61565b818103606083015262000b5f818462000ad5565b905095945050505050565b600080fd5b60007fffffffff0000000000000000000000000000000000000000000000000000000082169050919050565b62000ba68162000b6f565b811462000bb257600080fd5b50565b60008151905062000bc68162000b9b565b92915050565b60006020828403121562000be55762000be462000b6a565b5b600062000bf58482850162000bb5565b91505092915050565b7f4e487b7100000000000000000000000000000000000000000000000000000000600052602260045260246000fd5b6000600282049050600182168062000c4657607f821691505b6020821081141562000c5d5762000c5c62000bfe565b5b50919050565b61310a8062000c736000396000f3fe6080604052600436106101355760003560e01c8063715018a6116100ab578063ac0d038c1161006f578063ac0d038c146103f8578063b88d4fde14610423578063c87b56dd1461044c578063d40dc87014610489578063e985e9c5146104b4578063f2fde38b146104f157610135565b8063715018a614610337578063739567611461034e5780638da5cb5b1461037957806395d89b41146103a4578063a22cb465146103cf57610135565b806318160ddd116100fd57806318160ddd1461022457806323b872dd1461024f57806342842e0e1461027857806351cff8d9146102a15780636352211e146102bd57806370a08231146102fa57610135565b806301ffc9a71461013a57806306fdde0314610177578063081812fc146101a2578063095ea7b3146101df57806314c8e02014610208575b600080fd5b34801561014657600080fd5b50610161600480360381019061015c9190611dcb565b61051a565b60405161016e9190611e13565b60405180910390f35b34801561018357600080fd5b5061018c6105fc565b6040516101999190611ec7565b60405180910390f35b3480156101ae57600080fd5b506101c960048036038101906101c49190611f1f565b61068e565b6040516101d69190611f8d565b60405180910390f35b3480156101eb57600080fd5b5061020660048036038101906102019190611fd4565b610713565b005b610222600480360381019061021d9190611f1f565b61082b565b005b34801561023057600080fd5b50610239610969565b6040516102469190612023565b60405180910390f35b34801561025b57600080fd5b506102766004803603810190610271919061203e565b61096f565b005b34801561028457600080fd5b5061029f600480360381019061029a919061203e565b6109cf565b005b6102bb60048036038101906102b69190612091565b6109ef565b005b3480156102c957600080fd5b506102e460048036038101906102df9190611f1f565b610aac565b6040516102f19190611f8d565b60405180910390f35b34801561030657600080fd5b50610321600480360381019061031c9190612091565b610b5e565b60405161032e9190612023565b60405180910390f35b34801561034357600080fd5b5061034c610c16565b005b34801561035a57600080fd5b50610363610c9e565b6040516103709190612023565b60405180910390f35b34801561038557600080fd5b5061038e610ca9565b60405161039b9190611f8d565b60405180910390f35b3480156103b057600080fd5b506103b9610cd2565b6040516103c69190611ec7565b60405180910390f35b3480156103db57600080fd5b506103f660048036038101906103f191906120ea565b610d64565b005b34801561040457600080fd5b5061040d610ee5565b60405161041a9190612023565b60405180910390f35b34801561042f57600080fd5b5061044a6004803603810190610445919061225f565b610eea565b005b34801561045857600080fd5b50610473600480360381019061046e9190611f1f565b610f4c565b6040516104809190611ec7565b60405180910390f35b34801561049557600080fd5b5061049e610ff3565b6040516104ab9190612023565b60405180910390f35b3480156104c057600080fd5b506104db60048036038101906104d691906122e2565b610ff9565b6040516104e89190611e13565b60405180910390f35b3480156104fd57600080fd5b5061051860048036038101906105139190612091565b61108d565b005b60007f80ac58cd000000000000000000000000000000000000000000000000000000007bffffffffffffffffffffffffffffffffffffffffffffffffffffffff1916827bffffffffffffffffffffffffffffffffffffffffffffffffffffffff191614806105e557507f5b5e139f000000000000000000000000000000000000000000000000000000007bffffffffffffffffffffffffffffffffffffffffffffffffffffffff1916827bffffffffffffffffffffffffffffffffffffffffffffffffffffffff1916145b806105f557506105f482611198565b5b9050919050565b60606001805461060b90612351565b80601f016020809104026020016040519081016040528092919081815260200182805461063790612351565b80156106845780601f1061065957610100808354040283529160200191610684565b820191906000526020600020905b81548152906001019060200180831161066757829003601f168201915b5050505050905090565b600061069982611202565b6106d8576040517f08c379a00000000000000000000000000000000000000000000000000000000081526004016106cf906123f5565b60405180910390fd5b6005600083815260200190815260200160002060009054906101000a900473ffffffffffffffffffffffffffffffffffffffff169050919050565b600061071e82610aac565b90508073ffffffffffffffffffffffffffffffffffffffff168373ffffffffffffffffffffffffffffffffffffffff16141561078f576040517f08c379a000000000000000000000000000000000000000000000000000000000815260040161078690612487565b60405180910390fd5b8073ffffffffffffffffffffffffffffffffffffffff166107ae61126e565b73ffffffffffffffffffffffffffffffffffffffff1614806107dd57506107dc816107d761126e565b610ff9565b5b61081c576040517f08c379a000000000000000000000000000000000000000000000000000000000815260040161081390612519565b60405180910390fd5b6108268383611276565b505050565b6127108160075461083c9190612568565b111561087d576040517f08c379a00000000000000000000000000000000000000000000000000000000081526004016108749061260a565b60405180910390fd5b348166b1a2bc2ec50000610891919061262a565b11156108d2576040517f08c379a00000000000000000000000000000000000000000000000000000000081526004016108c9906126d0565b60405180910390fd5b6003816108de33610b5e565b6108e89190612568565b1115610929576040517f08c379a000000000000000000000000000000000000000000000000000000000815260040161092090612762565b60405180910390fd5b60005b81811015610965576109523360076000815461094790612782565b91905081905561132f565b808061095d90612782565b91505061092c565b5050565b60075481565b61098061097a61126e565b8261134d565b6109bf576040517f08c379a00000000000000000000000000000000000000000000000000000000081526004016109b69061283d565b60405180910390fd5b6109ca83838361142b565b505050565b6109ea83838360405180602001604052806000815250610eea565b505050565b6109f761126e565b73ffffffffffffffffffffffffffffffffffffffff16610a15610ca9565b73ffffffffffffffffffffffffffffffffffffffff1614610a6b576040517f08c379a0000000000000000000000000000000000000000000000000000000008152600401610a62906128a9565b60405180910390fd5b8073ffffffffffffffffffffffffffffffffffffffff166108fc479081150290604051600060405180830381858888f19350505050610aa957600080fd5b50565b6000806003600084815260200190815260200160002060009054906101000a900473ffffffffffffffffffffffffffffffffffffffff169050600073ffffffffffffffffffffffffffffffffffffffff168173ffffffffffffffffffffffffffffffffffffffff161415610b55576040517f08c379a0000000000000000000000000000000000000000000000000000000008152600401610b4c9061293b565b60405180910390fd5b80915050919050565b60008073ffffffffffffffffffffffffffffffffffffffff168273ffffffffffffffffffffffffffffffffffffffff161415610bcf576040517f08c379a0000000000000000000000000000000000000000000000000000000008152600401610bc6906129cd565b60405180910390fd5b600460008373ffffffffffffffffffffffffffffffffffffffff1673ffffffffffffffffffffffffffffffffffffffff168152602001908152602001600020549050919050565b610c1e61126e565b73ffffffffffffffffffffffffffffffffffffffff16610c3c610ca9565b73ffffffffffffffffffffffffffffffffffffffff1614610c92576040517f08c379a0000000000000000000000000000000000000000000000000000000008152600401610c89906128a9565b60405180910390fd5b610c9c6000611687565b565b66b1a2bc2ec5000081565b60008060009054906101000a900473ffffffffffffffffffffffffffffffffffffffff16905090565b606060028054610ce190612351565b80601f0160208091040260200160405190810160405280929190818152602001828054610d0d90612351565b8015610d5a5780601f10610d2f57610100808354040283529160200191610d5a565b820191906000526020600020905b815481529060010190602001808311610d3d57829003601f168201915b5050505050905090565b610d6c61126e565b73ffffffffffffffffffffffffffffffffffffffff168273ffffffffffffffffffffffffffffffffffffffff161415610dda576040517f08c379a0000000000000000000000000000000000000000000000000000000008152600401610dd190612a39565b60405180910390fd5b8060066000610de761126e565b73ffffffffffffffffffffffffffffffffffffffff1673ffffffffffffffffffffffffffffffffffffffff16815260200190815260200160002060008473ffffffffffffffffffffffffffffffffffffffff1673ffffffffffffffffffffffffffffffffffffffff16815260200190815260200160002060006101000a81548160ff0219169083151502179055508173ffffffffffffffffffffffffffffffffffffffff16610e9461126e565b73ffffffffffffffffffffffffffffffffffffffff167f17307eab39ab6107e8899845ad3d59bd9653f200f220920489ca2b5937696c3183604051610ed99190611e13565b60405180910390a35050565b600381565b610efb610ef561126e565b8361134d565b610f3a576040517f08c379a0000000000000000000000000000000000000000000000000000000008152600401610f319061283d565b60405180910390fd5b610f468484848461174b565b50505050565b6060610f5782611202565b610f96576040517f08c379a0000000000000000000000000000000000000000000000000000000008152600401610f8d90612acb565b60405180910390fd5b6000610fa06117a7565b90506000815111610fc05760405180602001604052806000815250610feb565b80610fca84611839565b604051602001610fdb929190612b27565b6040516020818303038152906040525b915050919050565b61271081565b6000600660008473ffffffffffffffffffffffffffffffffffffffff1673ffffffffffffffffffffffffffffffffffffffff16815260200190815260200160002060008373ffffffffffffffffffffffffffffffffffffffff1673ffffffffffffffffffffffffffffffffffffffff16815260200190815260200160002060009054906101000a900460ff16905092915050565b61109561126e565b73ffffffffffffffffffffffffffffffffffffffff166110b3610ca9565b73ffffffffffffffffffffffffffffffffffffffff1614611109576040517f08c379a0000000000000000000000000000000000000000000000000000000008152600401611100906128a9565b60405180910390fd5b600073ffffffffffffffffffffffffffffffffffffffff168173ffffffffffffffffffffffffffffffffffffffff161415611179576040517f08c379a000000000000000000000000000000000000000000000000000000000815260040161117090612bbd565b60405180910390fd5b61118281611687565b50565b600080823b905060008111915050919050565b60007f01ffc9a7000000000000000000000000000000000000000000000000000000007bffffffffffffffffffffffffffffffffffffffffffffffffffffffff1916827bffffffffffffffffffffffffffffffffffffffffffffffffffffffff1916149050919050565b60008073ffffffffffffffffffffffffffffffffffffffff166003600084815260200190815260200160002060009054906101000a900473ffffffffffffffffffffffffffffffffffffffff1673ffffffffffffffffffffffffffffffffffffffff1614159050919050565b600033905090565b816005600083815260200190815260200160002060006101000a81548173ffffffffffffffffffffffffffffffffffffffff021916908373ffffffffffffffffffffffffffffffffffffffff160217905550808273ffffffffffffffffffffffffffffffffffffffff166112e983610aac565b73ffffffffffffffffffffffffffffffffffffffff167f8c5be1e5ebec7d5bd14f71427d1e84f3dd0314c0f7b2291e5b200ac8c7c3b92560405160405180910390a45050565b61134982826040518060200160405280600081525061199a565b5050565b600061135882611202565b611397576040517f08c379a000000000000000000000000000000000000000000000000000000000815260040161138e90612c4f565b60405180910390fd5b60006113a283610aac565b90508073ffffffffffffffffffffffffffffffffffffffff168473ffffffffffffffffffffffffffffffffffffffff16148061141157508373ffffffffffffffffffffffffffffffffffffffff166113f98461068e565b73ffffffffffffffffffffffffffffffffffffffff16145b8061142257506114218185610ff9565b5b91505092915050565b8273ffffffffffffffffffffffffffffffffffffffff1661144b82610aac565b73ffffffffffffffffffffffffffffffffffffffff16146114a1576040517f08c379a000000000000000000000000000000000000000000000000000000000815260040161149890612ce1565b60405180910390fd5b600073ffffffffffffffffffffffffffffffffffffffff168273ffffffffffffffffffffffffffffffffffffffff161415611511576040517f08c379a000000000000000000000000000000000000000000000000000000000815260040161150890612d73565b60405180910390fd5b61151c8383836119f5565b611527600082611276565b6001600460008573ffffffffffffffffffffffffffffffffffffffff1673ffffffffffffffffffffffffffffffffffffffff16815260200190815260200160002060008282546115779190612d93565b925050819055506001600460008473ffffffffffffffffffffffffffffffffffffffff1673ffffffffffffffffffffffffffffffffffffffff16815260200190815260200160002060008282546115ce9190612568565b92505081905550816003600083815260200190815260200160002060006101000a81548173ffffffffffffffffffffffffffffffffffffffff021916908373ffffffffffffffffffffffffffffffffffffffff160217905550808273ffffffffffffffffffffffffffffffffffffffff168473ffffffffffffffffffffffffffffffffffffffff167fddf252ad1be2c89b69c2b068fc378daa952ba7f163c4a11628f55a4df523b3ef60405160405180910390a4505050565b60008060009054906101000a900473ffffffffffffffffffffffffffffffffffffffff169050816000806101000a81548173ffffffffffffffffffffffffffffffffffffffff021916908373ffffffffffffffffffffffffffffffffffffffff1602179055508173ffffffffffffffffffffffffffffffffffffffff168173ffffffffffffffffffffffffffffffffffffffff167f8be0079c531659141344cd1fd0a4f28419497f9722a3daafe3b4186f6b6457e060405160405180910390a35050565b61175684848461142b565b611762848484846119fa565b6117a1576040517f08c379a000000000000000000000000000000000000000000000000000000000815260040161179890612e39565b60405180910390fd5b50505050565b6060600880546117b690612351565b80601f01602080910402602001604051908101604052809291908181526020018280546117e290612351565b801561182f5780601f106118045761010080835404028352916020019161182f565b820191906000526020600020905b81548152906001019060200180831161181257829003601f168201915b5050505050905090565b60606000821415611881576040518060400160405280600181526020017f30000000000000000000000000000000000000000000000000000000000000008152509050611995565b600082905060005b600082146118b357808061189c90612782565b915050600a826118ac9190612e88565b9150611889565b60008167ffffffffffffffff8111156118cf576118ce612134565b5b6040519080825280601f01601f1916602001820160405280156119015781602001600182028036833780820191505090505b5090505b6000851461198e5760018261191a9190612d93565b9150600a856119299190612eb9565b60306119359190612568565b60f81b81838151811061194b5761194a612eea565b5b60200101907effffffffffffffffffffffffffffffffffffffffffffffffffffffffffffff1916908160001a905350600a856119879190612e88565b9450611905565b8093505050505b919050565b6119a48383611b91565b6119b160008484846119fa565b6119f0576040517f08c379a00000000000000000000000000000000000000000000000000000000081526004016119e790612e39565b60405180910390fd5b505050565b505050565b6000611a1b8473ffffffffffffffffffffffffffffffffffffffff16611185565b15611b84578373ffffffffffffffffffffffffffffffffffffffff1663150b7a02611a4461126e565b8786866040518563ffffffff1660e01b8152600401611a669493929190612f6e565b602060405180830381600087803b158015611a8057600080fd5b505af1925050508015611ab157506040513d601f19601f82011682018060405250810190611aae9190612fcf565b60015b611b34573d8060008114611ae1576040519150601f19603f3d011682016040523d82523d6000602084013e611ae6565b606091505b50600081511415611b2c576040517f08c379a0000000000000000000000000000000000000000000000000000000008152600401611b2390612e39565b60405180910390fd5b805181602001fd5b63150b7a0260e01b7bffffffffffffffffffffffffffffffffffffffffffffffffffffffff1916817bffffffffffffffffffffffffffffffffffffffffffffffffffffffff191614915050611b89565b600190505b949350505050565b600073ffffffffffffffffffffffffffffffffffffffff168273ffffffffffffffffffffffffffffffffffffffff161415611c01576040517f08c379a0000000000000000000000000000000000000000000000000000000008152600401611bf890613048565b60405180910390fd5b611c0a81611202565b15611c4a576040517f08c379a0000000000000000000000000000000000000000000000000000000008152600401611c41906130b4565b60405180910390fd5b611c56600083836119f5565b6001600460008473ffffffffffffffffffffffffffffffffffffffff1673ffffffffffffffffffffffffffffffffffffffff1681526020019081526020016000206000828254611ca69190612568565b92505081905550816003600083815260200190815260200160002060006101000a81548173ffffffffffffffffffffffffffffffffffffffff021916908373ffffffffffffffffffffffffffffffffffffffff160217905550808273ffffffffffffffffffffffffffffffffffffffff16600073ffffffffffffffffffffffffffffffffffffffff167fddf252ad1be2c89b69c2b068fc378daa952ba7f163c4a11628f55a4df523b3ef60405160405180910390a45050565b6000604051905090565b600080fd5b600080fd5b60007fffffffff0000000000000000000000000000000000000000000000000000000082169050919050565b611da881611d73565b8114611db357600080fd5b50565b600081359050611dc581611d9f565b92915050565b600060208284031215611de157611de0611d69565b5b6000611def84828501611db6565b91505092915050565b60008115159050919050565b611e0d81611df8565b82525050565b6000602082019050611e286000830184611e04565b92915050565b600081519050919050565b600082825260208201905092915050565b60005b83811015611e68578082015181840152602081019050611e4d565b83811115611e77576000848401525b50505050565b6000601f19601f8301169050919050565b6000611e9982611e2e565b611ea38185611e39565b9350611eb3818560208601611e4a565b611ebc81611e7d565b840191505092915050565b60006020820190508181036000830152611ee18184611e8e565b905092915050565b6000819050919050565b611efc81611ee9565b8114611f0757600080fd5b50565b600081359050611f1981611ef3565b92915050565b600060208284031215611f3557611f34611d69565b5b6000611f4384828501611f0a565b91505092915050565b600073ffffffffffffffffffffffffffffffffffffffff82169050919050565b6000611f7782611f4c565b9050919050565b611f8781611f6c565b82525050565b6000602082019050611fa26000830184611f7e565b92915050565b611fb181611f6c565b8114611fbc57600080fd5b50565b600081359050611fce81611fa8565b92915050565b60008060408385031215611feb57611fea611d69565b5b6000611ff985828601611fbf565b925050602061200a85828601611f0a565b9150509250929050565b61201d81611ee9565b82525050565b60006020820190506120386000830184612014565b92915050565b60008060006060848603121561205757612056611d69565b5b600061206586828701611fbf565b935050602061207686828701611fbf565b925050604061208786828701611f0a565b9150509250925092565b6000602082840312156120a7576120a6611d69565b5b60006120b584828501611fbf565b91505092915050565b6120c781611df8565b81146120d257600080fd5b50565b6000813590506120e4816120be565b92915050565b6000806040838503121561210157612100611d69565b5b600061210f85828601611fbf565b9250506020612120858286016120d5565b9150509250929050565b600080fd5b600080fd5b7f4e487b7100000000000000000000000000000000000000000000000000000000600052604160045260246000fd5b61216c82611e7d565b810181811067ffffffffffffffff8211171561218b5761218a612134565b5b80604052505050565b600061219e611d5f565b90506121aa8282612163565b919050565b600067ffffffffffffffff8211156121ca576121c9612134565b5b6121d382611e7d565b9050602081019050919050565b82818337600083830152505050565b60006122026121fd846121af565b612194565b90508281526020810184848401111561221e5761221d61212f565b5b6122298482856121e0565b509392505050565b600082601f8301126122465761224561212a565b5b81356122568482602086016121ef565b91505092915050565b6000806000806080858703121561227957612278611d69565b5b600061228787828801611fbf565b945050602061229887828801611fbf565b93505060406122a987828801611f0a565b925050606085013567ffffffffffffffff8111156122ca576122c9611d6e565b5b6122d687828801612231565b91505092959194509250565b600080604083850312156122f9576122f8611d69565b5b600061230785828601611fbf565b925050602061231885828601611fbf565b9150509250929050565b7f4e487b7100000000000000000000000000000000000000000000000000000000600052602260045260246000fd5b6000600282049050600182168061236957607f821691505b6020821081141561237d5761237c612322565b5b50919050565b7f4552433732313a20617070726f76656420717565727920666f72206e6f6e657860008201527f697374656e7420746f6b656e0000000000000000000000000000000000000000602082015250565b60006123df602c83611e39565b91506123ea82612383565b604082019050919050565b6000602082019050818103600083015261240e816123d2565b9050919050565b7f4552433732313a20617070726f76616c20746f2063757272656e74206f776e6560008201527f7200000000000000000000000000000000000000000000000000000000000000602082015250565b6000612471602183611e39565b915061247c82612415565b604082019050919050565b600060208201905081810360008301526124a081612464565b9050919050565b7f4552433732313a20617070726f76652063616c6c6572206973206e6f74206f7760008201527f6e6572206e6f7220617070726f76656420666f7220616c6c0000000000000000602082015250565b6000612503603883611e39565b915061250e826124a7565b604082019050919050565b60006020820190508181036000830152612532816124f6565b9050919050565b7f4e487b7100000000000000000000000000000000000000000000000000000000600052601160045260246000fd5b600061257382611ee9565b915061257e83611ee9565b9250827fffffffffffffffffffffffffffffffffffffffffffffffffffffffffffffffff038211156125b3576125b2612539565b5b828201905092915050565b7f70726f6a65637420697320736f6c64206f757421000000000000000000000000600082015250565b60006125f4601483611e39565b91506125ff826125be565b602082019050919050565b60006020820190508181036000830152612623816125e7565b9050919050565b600061263582611ee9565b915061264083611ee9565b9250817fffffffffffffffffffffffffffffffffffffffffffffffffffffffffffffffff048311821515161561267957612678612539565b5b828202905092915050565b7f6e6f7420656e6f756768206574686572207761732073656e7421000000000000600082015250565b60006126ba601a83611e39565b91506126c582612684565b602082019050919050565b600060208201905081810360008301526126e9816126ad565b9050919050565b7f796f752063616e206f6e6c79206d696e7420746872656520746f6b656e73207060008201527f6572206163636f756e7421000000000000000000000000000000000000000000602082015250565b600061274c602b83611e39565b9150612757826126f0565b604082019050919050565b6000602082019050818103600083015261277b8161273f565b9050919050565b600061278d82611ee9565b91507fffffffffffffffffffffffffffffffffffffffffffffffffffffffffffffffff8214156127c0576127bf612539565b5b600182019050919050565b7f4552433732313a207472616e736665722063616c6c6572206973206e6f74206f60008201527f776e6572206e6f7220617070726f766564000000000000000000000000000000602082015250565b6000612827603183611e39565b9150612832826127cb565b604082019050919050565b600060208201905081810360008301526128568161281a565b9050919050565b7f4f776e61626c653a2063616c6c6572206973206e6f7420746865206f776e6572600082015250565b6000612893602083611e39565b915061289e8261285d565b602082019050919050565b600060208201905081810360008301526128c281612886565b9050919050565b7f4552433732313a206f776e657220717565727920666f72206e6f6e657869737460008201527f656e7420746f6b656e0000000000000000000000000000000000000000000000602082015250565b6000612925602983611e39565b9150612930826128c9565b604082019050919050565b6000602082019050818103600083015261295481612918565b9050919050565b7f4552433732313a2062616c616e636520717565727920666f7220746865207a6560008201527f726f206164647265737300000000000000000000000000000000000000000000602082015250565b60006129b7602a83611e39565b91506129c28261295b565b604082019050919050565b600060208201905081810360008301526129e6816129aa565b9050919050565b7f4552433732313a20617070726f766520746f2063616c6c657200000000000000600082015250565b6000612a23601983611e39565b9150612a2e826129ed565b602082019050919050565b60006020820190508181036000830152612a5281612a16565b9050919050565b7f4552433732314d657461646174613a2055524920717565727920666f72206e6f60008201527f6e6578697374656e7420746f6b656e0000000000000000000000000000000000602082015250565b6000612ab5602f83611e39565b9150612ac082612a59565b604082019050919050565b60006020820190508181036000830152612ae481612aa8565b9050919050565b600081905092915050565b6000612b0182611e2e565b612b0b8185612aeb565b9350612b1b818560208601611e4a565b80840191505092915050565b6000612b338285612af6565b9150612b3f8284612af6565b91508190509392505050565b7f4f776e61626c653a206e6577206f776e657220697320746865207a65726f206160008201527f6464726573730000000000000000000000000000000000000000000000000000602082015250565b6000612ba7602683611e39565b9150612bb282612b4b565b604082019050919050565b60006020820190508181036000830152612bd681612b9a565b9050919050565b7f4552433732313a206f70657261746f7220717565727920666f72206e6f6e657860008201527f697374656e7420746f6b656e0000000000000000000000000000000000000000602082015250565b6000612c39602c83611e39565b9150612c4482612bdd565b604082019050919050565b60006020820190508181036000830152612c6881612c2c565b9050919050565b7f4552433732313a207472616e73666572206f6620746f6b656e2074686174206960008201527f73206e6f74206f776e0000000000000000000000000000000000000000000000602082015250565b6000612ccb602983611e39565b9150612cd682612c6f565b604082019050919050565b60006020820190508181036000830152612cfa81612cbe565b9050919050565b7f4552433732313a207472616e7366657220746f20746865207a65726f2061646460008201527f7265737300000000000000000000000000000000000000000000000000000000602082015250565b6000612d5d602483611e39565b9150612d6882612d01565b604082019050919050565b60006020820190508181036000830152612d8c81612d50565b9050919050565b6000612d9e82611ee9565b9150612da983611ee9565b925082821015612dbc57612dbb612539565b5b828203905092915050565b7f4552433732313a207472616e7366657220746f206e6f6e20455243373231526560008201527f63656976657220696d706c656d656e7465720000000000000000000000000000602082015250565b6000612e23603283611e39565b9150612e2e82612dc7565b604082019050919050565b60006020820190508181036000830152612e5281612e16565b9050919050565b7f4e487b7100000000000000000000000000000000000000000000000000000000600052601260045260246000fd5b6000612e9382611ee9565b9150612e9e83611ee9565b925082612eae57612ead612e59565b5b828204905092915050565b6000612ec482611ee9565b9150612ecf83611ee9565b925082612edf57612ede612e59565b5b828206905092915050565b7f4e487b7100000000000000000000000000000000000000000000000000000000600052603260045260246000fd5b600081519050919050565b600082825260208201905092915050565b6000612f4082612f19565b612f4a8185612f24565b9350612f5a818560208601611e4a565b612f6381611e7d565b840191505092915050565b6000608082019050612f836000830187611f7e565b612f906020830186611f7e565b612f9d6040830185612014565b8181036060830152612faf8184612f35565b905095945050505050565b600081519050612fc981611d9f565b92915050565b600060208284031215612fe557612fe4611d69565b5b6000612ff384828501612fba565b91505092915050565b7f4552433732313a206d696e7420746f20746865207a65726f2061646472657373600082015250565b6000613032602083611e39565b915061303d82612ffc565b602082019050919050565b6000602082019050818103600083015261306181613025565b9050919050565b7f4552433732313a20746f6b656e20616c7265616479206d696e74656400000000600082015250565b600061309e601c83611e39565b91506130a982613068565b602082019050919050565b600060208201905081810360008301526130cd81613091565b905091905056fea264697066735822122065798f033756445c18bc8320ae95ee72c0dc25dbe6819db85cd42cbe1923016e64736f6c63430008090033",
  "immutableReferences": {},
  "source": "pragma solidity >=0.4.22 <0.9.0;\r\n\r\nimport \"@openzeppelin/contracts/token/ERC721/ERC721.sol\";\r\nimport \"@openzeppelin/contracts/access/Ownable.sol\";\r\n\r\ncontract NFTCollectible is Ownable, ERC721{\r\n\r\n    uint256 public totalSupply=0;\r\n    uint256 constant public MAX_AMOUNT = 10000;\r\n    uint256 constant public MAX_TOKENS_PER_ACCOUNT = 3;\r\n    uint256 constant public LISTING_PRICE = 0.05 ether;\r\n    string private _nftBaseURI = \"https://dummyURI/\";\r\n\r\n\r\n\r\n    constructor() ERC721(\"DYING WORLDS\", \"DW\"){\r\n        for(uint i=0; i<50; i++)\r\n        {\r\n            _safeMint(msg.sender, ++totalSupply);\r\n        }\r\n    }\r\n\r\n\r\n    function mintTokenFromWeb(uint256 tokenQuantity) external payable{\r\n        require(totalSupply + tokenQuantity <= MAX_AMOUNT, \"project is sold out!\");\r\n        require(LISTING_PRICE * tokenQuantity <= msg.value, \"not enough ether was sent!\");\r\n        require(balanceOf(msg.sender) + tokenQuantity <= MAX_TOKENS_PER_ACCOUNT, \"you can only mint three tokens per account!\");\r\n\r\n        for(uint256 i = 0; i<tokenQuantity; i++){\r\n            _safeMint(msg.sender, ++totalSupply);\r\n        }\r\n\r\n    }\r\n\r\n    function withdraw(address treasury) external payable onlyOwner{\r\n        require(payable(treasury).send(address(this).balance));\r\n    }\r\n\r\n    function _baseURI() internal view override returns (string memory){\r\n        return _nftBaseURI;\r\n    }\r\n\r\n}\r\n",
  "sourcePath": "C:\\Contracts\\NFTCollectible\\contracts\\NFTCollectible.sol",
  "compiler": {
    "name": "solc",
    "version": "0.8.9+commit.e5eed63a.Emscripten.clang"
  },
  "schemaVersion": "3.4.3",
  "updatedAt": "2021-10-24T10:04:35.229Z",
  "devdoc": {
    "kind": "dev",
    "methods": {
      "approve(address,uint256)": {
        "details": "See {IERC721-approve}."
      },
      "balanceOf(address)": {
        "details": "See {IERC721-balanceOf}."
      },
      "getApproved(uint256)": {
        "details": "See {IERC721-getApproved}."
      },
      "isApprovedForAll(address,address)": {
        "details": "See {IERC721-isApprovedForAll}."
      },
      "name()": {
        "details": "See {IERC721Metadata-name}."
      },
      "owner()": {
        "details": "Returns the address of the current owner."
      },
      "ownerOf(uint256)": {
        "details": "See {IERC721-ownerOf}."
      },
      "renounceOwnership()": {
        "details": "Leaves the contract without owner. It will not be possible to call `onlyOwner` functions anymore. Can only be called by the current owner. NOTE: Renouncing ownership will leave the contract without an owner, thereby removing any functionality that is only available to the owner."
      },
      "safeTransferFrom(address,address,uint256)": {
        "details": "See {IERC721-safeTransferFrom}."
      },
      "safeTransferFrom(address,address,uint256,bytes)": {
        "details": "See {IERC721-safeTransferFrom}."
      },
      "setApprovalForAll(address,bool)": {
        "details": "See {IERC721-setApprovalForAll}."
      },
      "supportsInterface(bytes4)": {
        "details": "See {IERC165-supportsInterface}."
      },
      "symbol()": {
        "details": "See {IERC721Metadata-symbol}."
      },
      "tokenURI(uint256)": {
        "details": "See {IERC721Metadata-tokenURI}."
      },
      "transferFrom(address,address,uint256)": {
        "details": "See {IERC721-transferFrom}."
      },
      "transferOwnership(address)": {
        "details": "Transfers ownership of the contract to a new account (`newOwner`). Can only be called by the current owner."
      }
    },
    "version": 1
  },
  "userdoc": {
    "kind": "user",
    "methods": {},
    "version": 1
  }
}